{
  "_format": "hh-sol-artifact-1",
  "contractName": "NFTMarketplace",
  "sourceName": "contracts/NFTMarketplace.sol",
  "abi": [
    {
      "inputs": [],
      "stateMutability": "nonpayable",
      "type": "constructor"
    },
    {
      "anonymous": false,
      "inputs": [
        {
          "indexed": true,
          "internalType": "address",
          "name": "owner",
          "type": "address"
        },
        {
          "indexed": true,
          "internalType": "address",
          "name": "approved",
          "type": "address"
        },
        {
          "indexed": true,
          "internalType": "uint256",
          "name": "tokenId",
          "type": "uint256"
        }
      ],
      "name": "Approval",
      "type": "event"
    },
    {
      "anonymous": false,
      "inputs": [
        {
          "indexed": true,
          "internalType": "address",
          "name": "owner",
          "type": "address"
        },
        {
          "indexed": true,
          "internalType": "address",
          "name": "operator",
          "type": "address"
        },
        {
          "indexed": false,
          "internalType": "bool",
          "name": "approved",
          "type": "bool"
        }
      ],
      "name": "ApprovalForAll",
      "type": "event"
    },
    {
      "anonymous": false,
      "inputs": [
        {
          "indexed": false,
          "internalType": "uint256",
          "name": "_fromTokenId",
          "type": "uint256"
        },
        {
          "indexed": false,
          "internalType": "uint256",
          "name": "_toTokenId",
          "type": "uint256"
        }
      ],
      "name": "BatchMetadataUpdate",
      "type": "event"
    },
    {
      "anonymous": false,
      "inputs": [
        {
          "indexed": false,
          "internalType": "uint256",
          "name": "_tokenId",
          "type": "uint256"
        }
      ],
      "name": "MetadataUpdate",
      "type": "event"
    },
    {
      "anonymous": false,
      "inputs": [
        {
          "indexed": false,
          "internalType": "uint256",
          "name": "tokenId",
          "type": "uint256"
        },
        {
          "indexed": true,
          "internalType": "address",
          "name": "owner",
          "type": "address"
        }
      ],
      "name": "NFTMinted",
      "type": "event"
    },
    {
      "anonymous": false,
      "inputs": [
        {
          "indexed": true,
          "internalType": "address",
          "name": "from",
          "type": "address"
        },
        {
          "indexed": true,
          "internalType": "address",
          "name": "to",
          "type": "address"
        },
        {
          "indexed": true,
          "internalType": "uint256",
          "name": "tokenId",
          "type": "uint256"
        }
      ],
      "name": "Transfer",
      "type": "event"
    },
    {
      "inputs": [
        {
          "internalType": "string",
          "name": "tokenUri",
          "type": "string"
        },
        {
          "internalType": "address payable",
          "name": "_receiverAddr",
          "type": "address"
        }
      ],
      "name": "NFTminter",
      "outputs": [],
      "stateMutability": "nonpayable",
      "type": "function"
    },
    {
      "inputs": [
        {
          "internalType": "address",
          "name": "to",
          "type": "address"
        },
        {
          "internalType": "uint256",
          "name": "tokenId",
          "type": "uint256"
        }
      ],
      "name": "approve",
      "outputs": [],
      "stateMutability": "nonpayable",
      "type": "function"
    },
    {
      "inputs": [
        {
          "internalType": "address",
          "name": "owner",
          "type": "address"
        }
      ],
      "name": "balanceOf",
      "outputs": [
        {
          "internalType": "uint256",
          "name": "",
          "type": "uint256"
        }
      ],
      "stateMutability": "view",
      "type": "function"
    },
    {
      "inputs": [],
      "name": "getAllNFTs",
      "outputs": [
        {
          "components": [
            {
              "internalType": "uint256",
              "name": "tokenId",
              "type": "uint256"
            },
            {
              "internalType": "address payable",
              "name": "owner",
              "type": "address"
            }
          ],
          "internalType": "struct NFTMarketplace.ListedToken[]",
          "name": "",
          "type": "tuple[]"
        }
      ],
      "stateMutability": "view",
      "type": "function"
    },
    {
      "inputs": [
        {
          "internalType": "uint256",
          "name": "tokenId",
          "type": "uint256"
        }
      ],
      "name": "getApproved",
      "outputs": [
        {
          "internalType": "address",
          "name": "",
          "type": "address"
        }
      ],
      "stateMutability": "view",
      "type": "function"
    },
    {
      "inputs": [
        {
          "internalType": "address",
          "name": "userAddr",
          "type": "address"
        }
      ],
      "name": "getMyNFTs",
      "outputs": [
        {
          "components": [
            {
              "internalType": "uint256",
              "name": "tokenId",
              "type": "uint256"
            },
            {
              "internalType": "address payable",
              "name": "owner",
              "type": "address"
            }
          ],
          "internalType": "struct NFTMarketplace.ListedToken[]",
          "name": "",
          "type": "tuple[]"
        }
      ],
      "stateMutability": "view",
      "type": "function"
    },
    {
      "inputs": [
        {
          "internalType": "address",
          "name": "owner",
          "type": "address"
        },
        {
          "internalType": "address",
          "name": "operator",
          "type": "address"
        }
      ],
      "name": "isApprovedForAll",
      "outputs": [
        {
          "internalType": "bool",
          "name": "",
          "type": "bool"
        }
      ],
      "stateMutability": "view",
      "type": "function"
    },
    {
      "inputs": [],
      "name": "name",
      "outputs": [
        {
          "internalType": "string",
          "name": "",
          "type": "string"
        }
      ],
      "stateMutability": "view",
      "type": "function"
    },
    {
      "inputs": [],
      "name": "owner",
      "outputs": [
        {
          "internalType": "address payable",
          "name": "",
          "type": "address"
        }
      ],
      "stateMutability": "view",
      "type": "function"
    },
    {
      "inputs": [
        {
          "internalType": "uint256",
          "name": "tokenId",
          "type": "uint256"
        }
      ],
      "name": "ownerOf",
      "outputs": [
        {
          "internalType": "address",
          "name": "",
          "type": "address"
        }
      ],
      "stateMutability": "view",
      "type": "function"
    },
    {
      "inputs": [
        {
          "internalType": "address",
          "name": "from",
          "type": "address"
        },
        {
          "internalType": "address",
          "name": "to",
          "type": "address"
        },
        {
          "internalType": "uint256",
          "name": "tokenId",
          "type": "uint256"
        }
      ],
      "name": "safeTransferFrom",
      "outputs": [],
      "stateMutability": "nonpayable",
      "type": "function"
    },
    {
      "inputs": [
        {
          "internalType": "address",
          "name": "from",
          "type": "address"
        },
        {
          "internalType": "address",
          "name": "to",
          "type": "address"
        },
        {
          "internalType": "uint256",
          "name": "tokenId",
          "type": "uint256"
        },
        {
          "internalType": "bytes",
          "name": "data",
          "type": "bytes"
        }
      ],
      "name": "safeTransferFrom",
      "outputs": [],
      "stateMutability": "nonpayable",
      "type": "function"
    },
    {
      "inputs": [
        {
          "internalType": "address",
          "name": "operator",
          "type": "address"
        },
        {
          "internalType": "bool",
          "name": "approved",
          "type": "bool"
        }
      ],
      "name": "setApprovalForAll",
      "outputs": [],
      "stateMutability": "nonpayable",
      "type": "function"
    },
    {
      "inputs": [
        {
          "internalType": "bytes4",
          "name": "interfaceId",
          "type": "bytes4"
        }
      ],
      "name": "supportsInterface",
      "outputs": [
        {
          "internalType": "bool",
          "name": "",
          "type": "bool"
        }
      ],
      "stateMutability": "view",
      "type": "function"
    },
    {
      "inputs": [],
      "name": "symbol",
      "outputs": [
        {
          "internalType": "string",
          "name": "",
          "type": "string"
        }
      ],
      "stateMutability": "view",
      "type": "function"
    },
    {
      "inputs": [
        {
          "internalType": "uint256",
          "name": "tokenId",
          "type": "uint256"
        }
      ],
      "name": "tokenURI",
      "outputs": [
        {
          "internalType": "string",
          "name": "",
          "type": "string"
        }
      ],
      "stateMutability": "view",
      "type": "function"
    },
    {
      "inputs": [
        {
          "internalType": "address",
          "name": "from",
          "type": "address"
        },
        {
          "internalType": "address",
          "name": "to",
          "type": "address"
        },
        {
          "internalType": "uint256",
          "name": "tokenId",
          "type": "uint256"
        }
      ],
      "name": "transferFrom",
      "outputs": [],
      "stateMutability": "nonpayable",
      "type": "function"
    }
  ],
  "bytecode": "0x60806040523480156200001157600080fd5b506040518060400160405280600e81526020017f4e46544d61726b6574706c6163650000000000000000000000000000000000008152506040518060400160405280600481526020017f4e46544d0000000000000000000000000000000000000000000000000000000081525081600090816200008f919062000365565b508060019081620000a1919062000365565b50505033600760006101000a81548173ffffffffffffffffffffffffffffffffffffffff021916908373ffffffffffffffffffffffffffffffffffffffff1602179055506200044c565b600081519050919050565b7f4e487b7100000000000000000000000000000000000000000000000000000000600052604160045260246000fd5b7f4e487b7100000000000000000000000000000000000000000000000000000000600052602260045260246000fd5b600060028204905060018216806200016d57607f821691505b60208210810362000183576200018262000125565b5b50919050565b60008190508160005260206000209050919050565b60006020601f8301049050919050565b600082821b905092915050565b600060088302620001ed7fffffffffffffffffffffffffffffffffffffffffffffffffffffffffffffffff82620001ae565b620001f98683620001ae565b95508019841693508086168417925050509392505050565b6000819050919050565b6000819050919050565b600062000246620002406200023a8462000211565b6200021b565b62000211565b9050919050565b6000819050919050565b620002628362000225565b6200027a62000271826200024d565b848454620001bb565b825550505050565b600090565b6200029162000282565b6200029e81848462000257565b505050565b5b81811015620002c657620002ba60008262000287565b600181019050620002a4565b5050565b601f8211156200031557620002df8162000189565b620002ea846200019e565b81016020851015620002fa578190505b6200031262000309856200019e565b830182620002a3565b50505b505050565b600082821c905092915050565b60006200033a600019846008026200031a565b1980831691505092915050565b600062000355838362000327565b9150826002028217905092915050565b6200037082620000eb565b67ffffffffffffffff8111156200038c576200038b620000f6565b5b62000398825462000154565b620003a5828285620002ca565b600060209050601f831160018114620003dd5760008415620003c8578287015190505b620003d4858262000347565b86555062000444565b601f198416620003ed8662000189565b60005b828110156200041757848901518255600182019150602085019450602081019050620003f0565b8683101562000437578489015162000433601f89168262000327565b8355505b6001600288020188555050505b505050505050565b6132e7806200045c6000396000f3fe608060405234801561001057600080fd5b506004361061010b5760003560e01c80638da5cb5b116100a2578063b88d4fde11610071578063b88d4fde146102b6578063c87b56dd146102d2578063e0391b0914610302578063e921ee6e14610320578063e985e9c5146103505761010b565b80638da5cb5b1461024257806395d89b4114610260578063a22cb4651461027e578063a5b4bac21461029a5761010b565b806323b872dd116100de57806323b872dd146101aa57806342842e0e146101c65780636352211e146101e257806370a08231146102125761010b565b806301ffc9a71461011057806306fdde0314610140578063081812fc1461015e578063095ea7b31461018e575b600080fd5b61012a60048036038101906101259190611f76565b610380565b6040516101379190611fbe565b60405180910390f35b6101486103e1565b6040516101559190612069565b60405180910390f35b610178600480360381019061017391906120c1565b610473565b604051610185919061212f565b60405180910390f35b6101a860048036038101906101a39190612176565b6104b9565b005b6101c460048036038101906101bf91906121b6565b6105d0565b005b6101e060048036038101906101db91906121b6565b610630565b005b6101fc60048036038101906101f791906120c1565b610650565b604051610209919061212f565b60405180910390f35b61022c60048036038101906102279190612209565b6106d6565b6040516102399190612245565b60405180910390f35b61024a61078d565b6040516102579190612281565b60405180910390f35b6102686107b3565b6040516102759190612069565b60405180910390f35b610298600480360381019061029391906122c8565b610845565b005b6102b460048036038101906102af9190612469565b61085b565b005b6102d060048036038101906102cb9190612566565b61096c565b005b6102ec60048036038101906102e791906120c1565b6109ce565b6040516102f99190612069565b60405180910390f35b61030a610ae0565b60405161031791906126e5565b60405180910390f35b61033a60048036038101906103359190612209565b610c1d565b60405161034791906126e5565b60405180910390f35b61036a60048036038101906103659190612707565b610e66565b6040516103779190611fbe565b60405180910390f35b6000634906490660e01b7bffffffffffffffffffffffffffffffffffffffffffffffffffffffff1916827bffffffffffffffffffffffffffffffffffffffffffffffffffffffff191614806103da57506103d982610efa565b5b9050919050565b6060600080546103f090612776565b80601f016020809104026020016040519081016040528092919081815260200182805461041c90612776565b80156104695780601f1061043e57610100808354040283529160200191610469565b820191906000526020600020905b81548152906001019060200180831161044c57829003601f168201915b5050505050905090565b600061047e82610fdc565b6004600083815260200190815260200160002060009054906101000a900473ffffffffffffffffffffffffffffffffffffffff169050919050565b60006104c482610650565b90508073ffffffffffffffffffffffffffffffffffffffff168373ffffffffffffffffffffffffffffffffffffffff1603610534576040517f08c379a000000000000000000000000000000000000000000000000000000000815260040161052b90612819565b60405180910390fd5b8073ffffffffffffffffffffffffffffffffffffffff16610553611027565b73ffffffffffffffffffffffffffffffffffffffff16148061058257506105818161057c611027565b610e66565b5b6105c1576040517f08c379a00000000000000000000000000000000000000000000000000000000081526004016105b8906128ab565b60405180910390fd5b6105cb838361102f565b505050565b6105e16105db611027565b826110e8565b610620576040517f08c379a00000000000000000000000000000000000000000000000000000000081526004016106179061293d565b60405180910390fd5b61062b83838361117d565b505050565b61064b8383836040518060200160405280600081525061096c565b505050565b60008061065c83611476565b9050600073ffffffffffffffffffffffffffffffffffffffff168173ffffffffffffffffffffffffffffffffffffffff16036106cd576040517f08c379a00000000000000000000000000000000000000000000000000000000081526004016106c4906129a9565b60405180910390fd5b80915050919050565b60008073ffffffffffffffffffffffffffffffffffffffff168273ffffffffffffffffffffffffffffffffffffffff1603610746576040517f08c379a000000000000000000000000000000000000000000000000000000000815260040161073d90612a3b565b60405180910390fd5b600360008373ffffffffffffffffffffffffffffffffffffffff1673ffffffffffffffffffffffffffffffffffffffff168152602001908152602001600020549050919050565b600760009054906101000a900473ffffffffffffffffffffffffffffffffffffffff1681565b6060600180546107c290612776565b80601f01602080910402602001604051908101604052809291908181526020018280546107ee90612776565b801561083b5780601f106108105761010080835404028352916020019161083b565b820191906000526020600020905b81548152906001019060200180831161081e57829003601f168201915b5050505050905090565b610857610850611027565b83836114b3565b5050565b610865600861161f565b60006108716008611635565b905061087d8282611643565b6108878184611661565b60405180604001604052808281526020018373ffffffffffffffffffffffffffffffffffffffff16815250600960008381526020019081526020016000206000820151816000015560208201518160010160006101000a81548173ffffffffffffffffffffffffffffffffffffffff021916908373ffffffffffffffffffffffffffffffffffffffff1602179055509050508173ffffffffffffffffffffffffffffffffffffffff167f0176f203df400d7bd5f1b1c9ef36c16709bf3b5d9fd35f000a6bae32393f66c38260405161095f9190612245565b60405180910390a2505050565b61097d610977611027565b836110e8565b6109bc576040517f08c379a00000000000000000000000000000000000000000000000000000000081526004016109b39061293d565b60405180910390fd5b6109c884848484611705565b50505050565b60606109d982610fdc565b60006006600084815260200190815260200160002080546109f990612776565b80601f0160208091040260200160405190810160405280929190818152602001828054610a2590612776565b8015610a725780601f10610a4757610100808354040283529160200191610a72565b820191906000526020600020905b815481529060010190602001808311610a5557829003601f168201915b505050505090506000610a83611761565b90506000815103610a98578192505050610adb565b600082511115610acd578082604051602001610ab5929190612a97565b60405160208183030381529060405292505050610adb565b610ad684611778565b925050505b919050565b60606000610aee6008611635565b67ffffffffffffffff811115610b0757610b06612312565b5b604051908082528060200260200182016040528015610b4057816020015b610b2d611eda565b815260200190600190039081610b255790505b5090506000600190505b610b546008611635565b8111610c155760096000828152602001908152602001600020604051806040016040529081600082015481526020016001820160009054906101000a900473ffffffffffffffffffffffffffffffffffffffff1673ffffffffffffffffffffffffffffffffffffffff1673ffffffffffffffffffffffffffffffffffffffff168152505082600183610be69190612aea565b81518110610bf757610bf6612b1e565b5b60200260200101819052508080610c0d90612b4d565b915050610b4a565b508091505090565b6060600080600190505b610c316008611635565b8111610cc2578373ffffffffffffffffffffffffffffffffffffffff166009600083815260200190815260200160002060010160009054906101000a900473ffffffffffffffffffffffffffffffffffffffff1673ffffffffffffffffffffffffffffffffffffffff1603610caf578180610cab90612b4d565b9250505b8080610cba90612b4d565b915050610c27565b5060008167ffffffffffffffff811115610cdf57610cde612312565b5b604051908082528060200260200182016040528015610d1857816020015b610d05611eda565b815260200190600190039081610cfd5790505b509050600080600190505b610d2d6008611635565b8111610e5a578573ffffffffffffffffffffffffffffffffffffffff166009600083815260200190815260200160002060010160009054906101000a900473ffffffffffffffffffffffffffffffffffffffff1673ffffffffffffffffffffffffffffffffffffffff1603610e475760096000828152602001908152602001600020604051806040016040529081600082015481526020016001820160009054906101000a900473ffffffffffffffffffffffffffffffffffffffff1673ffffffffffffffffffffffffffffffffffffffff1673ffffffffffffffffffffffffffffffffffffffff1681525050838381518110610e2d57610e2c612b1e565b5b60200260200101819052508180610e4390612b4d565b9250505b8080610e5290612b4d565b915050610d23565b50819350505050919050565b6000600560008473ffffffffffffffffffffffffffffffffffffffff1673ffffffffffffffffffffffffffffffffffffffff16815260200190815260200160002060008373ffffffffffffffffffffffffffffffffffffffff1673ffffffffffffffffffffffffffffffffffffffff16815260200190815260200160002060009054906101000a900460ff16905092915050565b60007f80ac58cd000000000000000000000000000000000000000000000000000000007bffffffffffffffffffffffffffffffffffffffffffffffffffffffff1916827bffffffffffffffffffffffffffffffffffffffffffffffffffffffff19161480610fc557507f5b5e139f000000000000000000000000000000000000000000000000000000007bffffffffffffffffffffffffffffffffffffffffffffffffffffffff1916827bffffffffffffffffffffffffffffffffffffffffffffffffffffffff1916145b80610fd55750610fd4826117e0565b5b9050919050565b610fe58161184a565b611024576040517f08c379a000000000000000000000000000000000000000000000000000000000815260040161101b906129a9565b60405180910390fd5b50565b600033905090565b816004600083815260200190815260200160002060006101000a81548173ffffffffffffffffffffffffffffffffffffffff021916908373ffffffffffffffffffffffffffffffffffffffff160217905550808273ffffffffffffffffffffffffffffffffffffffff166110a283610650565b73ffffffffffffffffffffffffffffffffffffffff167f8c5be1e5ebec7d5bd14f71427d1e84f3dd0314c0f7b2291e5b200ac8c7c3b92560405160405180910390a45050565b6000806110f483610650565b90508073ffffffffffffffffffffffffffffffffffffffff168473ffffffffffffffffffffffffffffffffffffffff16148061113657506111358185610e66565b5b8061117457508373ffffffffffffffffffffffffffffffffffffffff1661115c84610473565b73ffffffffffffffffffffffffffffffffffffffff16145b91505092915050565b8273ffffffffffffffffffffffffffffffffffffffff1661119d82610650565b73ffffffffffffffffffffffffffffffffffffffff16146111f3576040517f08c379a00000000000000000000000000000000000000000000000000000000081526004016111ea90612c07565b60405180910390fd5b600073ffffffffffffffffffffffffffffffffffffffff168273ffffffffffffffffffffffffffffffffffffffff1603611262576040517f08c379a000000000000000000000000000000000000000000000000000000000815260040161125990612c99565b60405180910390fd5b61126f838383600161188b565b8273ffffffffffffffffffffffffffffffffffffffff1661128f82610650565b73ffffffffffffffffffffffffffffffffffffffff16146112e5576040517f08c379a00000000000000000000000000000000000000000000000000000000081526004016112dc90612c07565b60405180910390fd5b6004600082815260200190815260200160002060006101000a81549073ffffffffffffffffffffffffffffffffffffffff02191690556001600360008573ffffffffffffffffffffffffffffffffffffffff1673ffffffffffffffffffffffffffffffffffffffff168152602001908152602001600020600082825403925050819055506001600360008473ffffffffffffffffffffffffffffffffffffffff1673ffffffffffffffffffffffffffffffffffffffff16815260200190815260200160002060008282540192505081905550816002600083815260200190815260200160002060006101000a81548173ffffffffffffffffffffffffffffffffffffffff021916908373ffffffffffffffffffffffffffffffffffffffff160217905550808273ffffffffffffffffffffffffffffffffffffffff168473ffffffffffffffffffffffffffffffffffffffff167fddf252ad1be2c89b69c2b068fc378daa952ba7f163c4a11628f55a4df523b3ef60405160405180910390a46114718383836001611891565b505050565b60006002600083815260200190815260200160002060009054906101000a900473ffffffffffffffffffffffffffffffffffffffff169050919050565b8173ffffffffffffffffffffffffffffffffffffffff168373ffffffffffffffffffffffffffffffffffffffff1603611521576040517f08c379a000000000000000000000000000000000000000000000000000000000815260040161151890612d05565b60405180910390fd5b80600560008573ffffffffffffffffffffffffffffffffffffffff1673ffffffffffffffffffffffffffffffffffffffff16815260200190815260200160002060008473ffffffffffffffffffffffffffffffffffffffff1673ffffffffffffffffffffffffffffffffffffffff16815260200190815260200160002060006101000a81548160ff0219169083151502179055508173ffffffffffffffffffffffffffffffffffffffff168373ffffffffffffffffffffffffffffffffffffffff167f17307eab39ab6107e8899845ad3d59bd9653f200f220920489ca2b5937696c31836040516116129190611fbe565b60405180910390a3505050565b6001816000016000828254019250508190555050565b600081600001549050919050565b61165d828260405180602001604052806000815250611897565b5050565b61166a8261184a565b6116a9576040517f08c379a00000000000000000000000000000000000000000000000000000000081526004016116a090612d97565b60405180910390fd5b806006600084815260200190815260200160002090816116c99190612f63565b507ff8e1a15aba9398e019f0b49df1a4fde98ee17ae345cb5f6b5e2c27f5033e8ce7826040516116f99190612245565b60405180910390a15050565b61171084848461117d565b61171c848484846118f2565b61175b576040517f08c379a0000000000000000000000000000000000000000000000000000000008152600401611752906130a7565b60405180910390fd5b50505050565b606060405180602001604052806000815250905090565b606061178382610fdc565b600061178d611761565b905060008151116117ad57604051806020016040528060008152506117d8565b806117b784611a79565b6040516020016117c8929190612a97565b6040516020818303038152906040525b915050919050565b60007f01ffc9a7000000000000000000000000000000000000000000000000000000007bffffffffffffffffffffffffffffffffffffffffffffffffffffffff1916827bffffffffffffffffffffffffffffffffffffffffffffffffffffffff1916149050919050565b60008073ffffffffffffffffffffffffffffffffffffffff1661186c83611476565b73ffffffffffffffffffffffffffffffffffffffff1614159050919050565b50505050565b50505050565b6118a18383611b47565b6118ae60008484846118f2565b6118ed576040517f08c379a00000000000000000000000000000000000000000000000000000000081526004016118e4906130a7565b60405180910390fd5b505050565b60006119138473ffffffffffffffffffffffffffffffffffffffff16611d64565b15611a6c578373ffffffffffffffffffffffffffffffffffffffff1663150b7a0261193c611027565b8786866040518563ffffffff1660e01b815260040161195e949392919061311c565b6020604051808303816000875af192505050801561199a57506040513d601f19601f82011682018060405250810190611997919061317d565b60015b611a1c573d80600081146119ca576040519150601f19603f3d011682016040523d82523d6000602084013e6119cf565b606091505b506000815103611a14576040517f08c379a0000000000000000000000000000000000000000000000000000000008152600401611a0b906130a7565b60405180910390fd5b805181602001fd5b63150b7a0260e01b7bffffffffffffffffffffffffffffffffffffffffffffffffffffffff1916817bffffffffffffffffffffffffffffffffffffffffffffffffffffffff191614915050611a71565b600190505b949350505050565b606060006001611a8884611d87565b01905060008167ffffffffffffffff811115611aa757611aa6612312565b5b6040519080825280601f01601f191660200182016040528015611ad95781602001600182028036833780820191505090505b509050600082602001820190505b600115611b3c578080600190039150507f3031323334353637383961626364656600000000000000000000000000000000600a86061a8153600a8581611b3057611b2f6131aa565b5b04945060008503611ae7575b819350505050919050565b600073ffffffffffffffffffffffffffffffffffffffff168273ffffffffffffffffffffffffffffffffffffffff1603611bb6576040517f08c379a0000000000000000000000000000000000000000000000000000000008152600401611bad90613225565b60405180910390fd5b611bbf8161184a565b15611bff576040517f08c379a0000000000000000000000000000000000000000000000000000000008152600401611bf690613291565b60405180910390fd5b611c0d60008383600161188b565b611c168161184a565b15611c56576040517f08c379a0000000000000000000000000000000000000000000000000000000008152600401611c4d90613291565b60405180910390fd5b6001600360008473ffffffffffffffffffffffffffffffffffffffff1673ffffffffffffffffffffffffffffffffffffffff16815260200190815260200160002060008282540192505081905550816002600083815260200190815260200160002060006101000a81548173ffffffffffffffffffffffffffffffffffffffff021916908373ffffffffffffffffffffffffffffffffffffffff160217905550808273ffffffffffffffffffffffffffffffffffffffff16600073ffffffffffffffffffffffffffffffffffffffff167fddf252ad1be2c89b69c2b068fc378daa952ba7f163c4a11628f55a4df523b3ef60405160405180910390a4611d60600083836001611891565b5050565b6000808273ffffffffffffffffffffffffffffffffffffffff163b119050919050565b600080600090507a184f03e93ff9f4daa797ed6e38ed64bf6a1f0100000000000000008310611de5577a184f03e93ff9f4daa797ed6e38ed64bf6a1f0100000000000000008381611ddb57611dda6131aa565b5b0492506040810190505b6d04ee2d6d415b85acef81000000008310611e22576d04ee2d6d415b85acef81000000008381611e1857611e176131aa565b5b0492506020810190505b662386f26fc100008310611e5157662386f26fc100008381611e4757611e466131aa565b5b0492506010810190505b6305f5e1008310611e7a576305f5e1008381611e7057611e6f6131aa565b5b0492506008810190505b6127108310611e9f576127108381611e9557611e946131aa565b5b0492506004810190505b60648310611ec25760648381611eb857611eb76131aa565b5b0492506002810190505b600a8310611ed1576001810190505b80915050919050565b604051806040016040528060008152602001600073ffffffffffffffffffffffffffffffffffffffff1681525090565b6000604051905090565b600080fd5b600080fd5b60007fffffffff0000000000000000000000000000000000000000000000000000000082169050919050565b611f5381611f1e565b8114611f5e57600080fd5b50565b600081359050611f7081611f4a565b92915050565b600060208284031215611f8c57611f8b611f14565b5b6000611f9a84828501611f61565b91505092915050565b60008115159050919050565b611fb881611fa3565b82525050565b6000602082019050611fd36000830184611faf565b92915050565b600081519050919050565b600082825260208201905092915050565b60005b83811015612013578082015181840152602081019050611ff8565b60008484015250505050565b6000601f19601f8301169050919050565b600061203b82611fd9565b6120458185611fe4565b9350612055818560208601611ff5565b61205e8161201f565b840191505092915050565b600060208201905081810360008301526120838184612030565b905092915050565b6000819050919050565b61209e8161208b565b81146120a957600080fd5b50565b6000813590506120bb81612095565b92915050565b6000602082840312156120d7576120d6611f14565b5b60006120e5848285016120ac565b91505092915050565b600073ffffffffffffffffffffffffffffffffffffffff82169050919050565b6000612119826120ee565b9050919050565b6121298161210e565b82525050565b60006020820190506121446000830184612120565b92915050565b6121538161210e565b811461215e57600080fd5b50565b6000813590506121708161214a565b92915050565b6000806040838503121561218d5761218c611f14565b5b600061219b85828601612161565b92505060206121ac858286016120ac565b9150509250929050565b6000806000606084860312156121cf576121ce611f14565b5b60006121dd86828701612161565b93505060206121ee86828701612161565b92505060406121ff868287016120ac565b9150509250925092565b60006020828403121561221f5761221e611f14565b5b600061222d84828501612161565b91505092915050565b61223f8161208b565b82525050565b600060208201905061225a6000830184612236565b92915050565b600061226b826120ee565b9050919050565b61227b81612260565b82525050565b60006020820190506122966000830184612272565b92915050565b6122a581611fa3565b81146122b057600080fd5b50565b6000813590506122c28161229c565b92915050565b600080604083850312156122df576122de611f14565b5b60006122ed85828601612161565b92505060206122fe858286016122b3565b9150509250929050565b600080fd5b600080fd5b7f4e487b7100000000000000000000000000000000000000000000000000000000600052604160045260246000fd5b61234a8261201f565b810181811067ffffffffffffffff8211171561236957612368612312565b5b80604052505050565b600061237c611f0a565b90506123888282612341565b919050565b600067ffffffffffffffff8211156123a8576123a7612312565b5b6123b18261201f565b9050602081019050919050565b82818337600083830152505050565b60006123e06123db8461238d565b612372565b9050828152602081018484840111156123fc576123fb61230d565b5b6124078482856123be565b509392505050565b600082601f83011261242457612423612308565b5b81356124348482602086016123cd565b91505092915050565b61244681612260565b811461245157600080fd5b50565b6000813590506124638161243d565b92915050565b600080604083850312156124805761247f611f14565b5b600083013567ffffffffffffffff81111561249e5761249d611f19565b5b6124aa8582860161240f565b92505060206124bb85828601612454565b9150509250929050565b600067ffffffffffffffff8211156124e0576124df612312565b5b6124e98261201f565b9050602081019050919050565b6000612509612504846124c5565b612372565b9050828152602081018484840111156125255761252461230d565b5b6125308482856123be565b509392505050565b600082601f83011261254d5761254c612308565b5b813561255d8482602086016124f6565b91505092915050565b600080600080608085870312156125805761257f611f14565b5b600061258e87828801612161565b945050602061259f87828801612161565b93505060406125b0878288016120ac565b925050606085013567ffffffffffffffff8111156125d1576125d0611f19565b5b6125dd87828801612538565b91505092959194509250565b600081519050919050565b600082825260208201905092915050565b6000819050602082019050919050565b61261e8161208b565b82525050565b61262d81612260565b82525050565b6040820160008201516126496000850182612615565b50602082015161265c6020850182612624565b50505050565b600061266e8383612633565b60408301905092915050565b6000602082019050919050565b6000612692826125e9565b61269c81856125f4565b93506126a783612605565b8060005b838110156126d85781516126bf8882612662565b97506126ca8361267a565b9250506001810190506126ab565b5085935050505092915050565b600060208201905081810360008301526126ff8184612687565b905092915050565b6000806040838503121561271e5761271d611f14565b5b600061272c85828601612161565b925050602061273d85828601612161565b9150509250929050565b7f4e487b7100000000000000000000000000000000000000000000000000000000600052602260045260246000fd5b6000600282049050600182168061278e57607f821691505b6020821081036127a1576127a0612747565b5b50919050565b7f4552433732313a20617070726f76616c20746f2063757272656e74206f776e6560008201527f7200000000000000000000000000000000000000000000000000000000000000602082015250565b6000612803602183611fe4565b915061280e826127a7565b604082019050919050565b60006020820190508181036000830152612832816127f6565b9050919050565b7f4552433732313a20617070726f76652063616c6c6572206973206e6f7420746f60008201527f6b656e206f776e6572206f7220617070726f76656420666f7220616c6c000000602082015250565b6000612895603d83611fe4565b91506128a082612839565b604082019050919050565b600060208201905081810360008301526128c481612888565b9050919050565b7f4552433732313a2063616c6c6572206973206e6f7420746f6b656e206f776e6560008201527f72206f7220617070726f76656400000000000000000000000000000000000000602082015250565b6000612927602d83611fe4565b9150612932826128cb565b604082019050919050565b600060208201905081810360008301526129568161291a565b9050919050565b7f4552433732313a20696e76616c696420746f6b656e2049440000000000000000600082015250565b6000612993601883611fe4565b915061299e8261295d565b602082019050919050565b600060208201905081810360008301526129c281612986565b9050919050565b7f4552433732313a2061646472657373207a65726f206973206e6f74206120766160008201527f6c6964206f776e65720000000000000000000000000000000000000000000000602082015250565b6000612a25602983611fe4565b9150612a30826129c9565b604082019050919050565b60006020820190508181036000830152612a5481612a18565b9050919050565b600081905092915050565b6000612a7182611fd9565b612a7b8185612a5b565b9350612a8b818560208601611ff5565b80840191505092915050565b6000612aa38285612a66565b9150612aaf8284612a66565b91508190509392505050565b7f4e487b7100000000000000000000000000000000000000000000000000000000600052601160045260246000fd5b6000612af58261208b565b9150612b008361208b565b9250828203905081811115612b1857612b17612abb565b5b92915050565b7f4e487b7100000000000000000000000000000000000000000000000000000000600052603260045260246000fd5b6000612b588261208b565b91507fffffffffffffffffffffffffffffffffffffffffffffffffffffffffffffffff8203612b8a57612b89612abb565b5b600182019050919050565b7f4552433732313a207472616e736665722066726f6d20696e636f72726563742060008201527f6f776e6572000000000000000000000000000000000000000000000000000000602082015250565b6000612bf1602583611fe4565b9150612bfc82612b95565b604082019050919050565b60006020820190508181036000830152612c2081612be4565b9050919050565b7f4552433732313a207472616e7366657220746f20746865207a65726f2061646460008201527f7265737300000000000000000000000000000000000000000000000000000000602082015250565b6000612c83602483611fe4565b9150612c8e82612c27565b604082019050919050565b60006020820190508181036000830152612cb281612c76565b9050919050565b7f4552433732313a20617070726f766520746f2063616c6c657200000000000000600082015250565b6000612cef601983611fe4565b9150612cfa82612cb9565b602082019050919050565b60006020820190508181036000830152612d1e81612ce2565b9050919050565b7f45524337323155524953746f726167653a2055524920736574206f66206e6f6e60008201527f6578697374656e7420746f6b656e000000000000000000000000000000000000602082015250565b6000612d81602e83611fe4565b9150612d8c82612d25565b604082019050919050565b60006020820190508181036000830152612db081612d74565b9050919050565b60008190508160005260206000209050919050565b60006020601f8301049050919050565b600082821b905092915050565b600060088302612e197fffffffffffffffffffffffffffffffffffffffffffffffffffffffffffffffff82612ddc565b612e238683612ddc565b95508019841693508086168417925050509392505050565b6000819050919050565b6000612e60612e5b612e568461208b565b612e3b565b61208b565b9050919050565b6000819050919050565b612e7a83612e45565b612e8e612e8682612e67565b848454612de9565b825550505050565b600090565b612ea3612e96565b612eae818484612e71565b505050565b5b81811015612ed257612ec7600082612e9b565b600181019050612eb4565b5050565b601f821115612f1757612ee881612db7565b612ef184612dcc565b81016020851015612f00578190505b612f14612f0c85612dcc565b830182612eb3565b50505b505050565b600082821c905092915050565b6000612f3a60001984600802612f1c565b1980831691505092915050565b6000612f538383612f29565b9150826002028217905092915050565b612f6c82611fd9565b67ffffffffffffffff811115612f8557612f84612312565b5b612f8f8254612776565b612f9a828285612ed6565b600060209050601f831160018114612fcd5760008415612fbb578287015190505b612fc58582612f47565b86555061302d565b601f198416612fdb86612db7565b60005b8281101561300357848901518255600182019150602085019450602081019050612fde565b86831015613020578489015161301c601f891682612f29565b8355505b6001600288020188555050505b505050505050565b7f4552433732313a207472616e7366657220746f206e6f6e20455243373231526560008201527f63656976657220696d706c656d656e7465720000000000000000000000000000602082015250565b6000613091603283611fe4565b915061309c82613035565b604082019050919050565b600060208201905081810360008301526130c081613084565b9050919050565b600081519050919050565b600082825260208201905092915050565b60006130ee826130c7565b6130f881856130d2565b9350613108818560208601611ff5565b6131118161201f565b840191505092915050565b60006080820190506131316000830187612120565b61313e6020830186612120565b61314b6040830185612236565b818103606083015261315d81846130e3565b905095945050505050565b60008151905061317781611f4a565b92915050565b60006020828403121561319357613192611f14565b5b60006131a184828501613168565b91505092915050565b7f4e487b7100000000000000000000000000000000000000000000000000000000600052601260045260246000fd5b7f4552433732313a206d696e7420746f20746865207a65726f2061646472657373600082015250565b600061320f602083611fe4565b915061321a826131d9565b602082019050919050565b6000602082019050818103600083015261323e81613202565b9050919050565b7f4552433732313a20746f6b656e20616c7265616479206d696e74656400000000600082015250565b600061327b601c83611fe4565b915061328682613245565b602082019050919050565b600060208201905081810360008301526132aa8161326e565b905091905056fea26469706673582212202fe2b1704cdbd8daeb5b1e05499db32c7f54761ee53da2519b3db2ad440fe21d64736f6c63430008110033",
  "linkReferences": {},
  "deployedLinkReferences": {}
}